:020000040800F2
:100000000010002069140008B1140008B1140008A1
:10001000B1140008B1140008B11400080000000079
:10002000000000000000000000000000B114000803
:10003000B114000800000000B1140008B114000859
:1000400000000000000000000000000000000000B0
:1000500000000000000000000000000000000000A0
:100060000000000000000000000000000000000090
:100070000000000000000000000000000000000080
:100080000000000000000000000000000000000070
:100090000000000000000000000000000000000060
:1000A0000000000000000000000000000000000050
:1000B0000000000000000000000000000000000040
:1000C0000000000000000000000000000000000030
:1000D0000000000000000000000000000000000020
:1000E0000000000000000000000000000000000010
:1000F0000000000000000000000000000000000000
:1001000000000000000000000000000000000000EF
:1001100000000000000000000000000000000000DF
:1001200000000000000000000000000000000000CF
:1001300000000000000000000000000000000000BF
:1001400000000000000000000000000000000000AF
:10015000000000000000000000000000000000009F
:10016000000000000000000000000000000000008F
:10017000000000000000000000000000000000007F
:08018000000000000000000077
:100188000448054B10B5834203D0044B002B00D024
:10019800984710BD2000002020000020000000002B
:1001A80006480749091A8910CB0F591810B5491084
:1001B80003D0044B002B00D0984710BD200000202E
:1001C800200000200000000010B5074C2378002B09
:1001D80009D1FFF7D5FF054B002B02D0044800E0FA
:1001E80000BF0123237010BD200000200000000084
:1001F800B4140008054B10B5002B03D0044905487A
:1002080000E000BFFFF7CCFF10BDC04600000000B3
:1002180024000020B414000802B4714649084900BB
:10022800095C49008E4402BC7047C046002243085E
:100238008B4274D303098B425FD3030A8B4244D3A6
:10024800030B8B4228D3030C8B420DD3FF220902E8
:1002580012BA030C8B4202D31212090265D0030BA7
:100268008B4219D300E0090AC30B8B4201D3CB039D
:10027800C01A5241830B8B4201D38B03C01A5241DF
:10028800430B8B4201D34B03C01A5241030B8B42E1
:1002980001D30B03C01A5241C30A8B4201D3CB02CC
:1002A800C01A5241830A8B4201D38B02C01A5241B1
:1002B800430A8B4201D34B02C01A5241030A8B42B4
:1002C80001D30B02C01A5241CDD2C3098B4201D3CC
:1002D800CB01C01A524183098B4201D38B01C01A4A
:1002E800524143098B4201D34B01C01A52410309C1
:1002F8008B4201D30B01C01A5241C3088B4201D370
:10030800CB00C01A524183088B4201D38B00C01A1C
:10031800524143088B4201D34B00C01A5241411A43
:1003280000D20146524110467047FFE701B5002050
:1003380000F0F0F802BDC0460029F7D076E7704714
:1003480003460B437FD4002243088B4274D303092E
:100358008B425FD3030A8B4244D3030B8B4228D3CF
:10036800030C8B420DD3FF22090212BA030C8B42F5
:1003780002D31212090265D0030B8B4219D300E095
:10038800090AC30B8B4201D3CB03C01A5241830B1A
:100398008B4201D38B03C01A5241430B8B4201D3CA
:1003A8004B03C01A5241030B8B4201D30B03C01AF3
:1003B8005241C30A8B4201D3CB02C01A5241830A6D
:1003C8008B4201D38B02C01A5241430A8B4201D39C
:1003D8004B02C01A5241030A8B4201D30B02C01AC6
:1003E8005241CDD2C3098B4201D3CB01C01A52412D
:1003F80083098B4201D38B01C01A524143098B42B6
:1004080001D34B01C01A524103098B4201D30B019E
:10041800C01A5241C3088B4201D3CB00C01A5241C3
:1004280083088B4201D38B00C01A524143088B4288
:1004380001D34B00C01A5241411A00D20146524121
:10044800104670475DE0CA0F00D04942031000D340
:100458004042534000229C4603098B422DD3030A95
:100468008B4212D3FC22890112BA030A8B420CD3A5
:10047800890192118B4208D3890192118B4204D3CE
:1004880089013AD0921100E08909C3098B4201D34E
:10049800CB01C01A524183098B4201D38B01C01A88
:1004A800524143098B4201D34B01C01A52410309FF
:1004B8008B4201D30B01C01A5241C3088B4201D3AE
:1004C800CB00C01A524183088B4201D38B00C01A5B
:1004D8005241D9D243088B4201D34B00C01A524132
:1004E800411A00D20146634652415B10104601D3BF
:1004F8004042002B00D54942704763465B1000D349
:10050800404201B5002000F005F802BD0029F8D0EE
:1005180016E770477047C04670B50C4D0C4E761BF9
:10052800B61005D0002408CD01349847A642FAD168
:1005380000F0BCFF074D084E761BB61005D000240E
:1005480008CD01349847A642FAD170BDE0140008DE
:10055800E0140008E0140008E414000813B56B4622
:100568000024DA1D01217220147000F0E3F8200045
:1005780016BD37B50378050000930B780C0001937E
:10058800009A019B5343009300980199FFF7D8FE06
:10059800019000980199FFF7D3FE0090009B2B7003
:1005A800019B237037BD70B506000D001400A542ED
:1005B80000DB70BDA119A819FFF7DBFF0135013C6D
:1005C800F5E770B505000E000024731EA3420EDC8B
:1005D80070BDE85CA95C884200D21A000133B342BE
:1005E800F7D121002800FFF7DEFF0134EDE72300F3
:1005F8002200F4E710B500F003FA074C1A21200096
:10060800FFF7DFFF22001A21722000F093F800F0B4
:10061800FFF9002010BDC0460000002010B500F012
:1006280043F900F06DF900F0ABF900F06BF8064AF9
:100638001B21612000F060F8044A0021732000F0BB
:100648005BF800F0C9F8FCE765050008FD0500083F
:100658000120704770B50024844201DB00201FE0B0
:100668004D780B782E00303EF6B2092E0CD8165570
:100678001D00303DEEB2092E15D8135D2D011D4326
:10068800155501340231E7E72E00413E052E02D808
:10069800373D1555ECE72E00613E052E01D90120A6
:1006A80070BD573DF5E71D00413D052D05D8373B89
:1006B800155D1B012B431355E3E71D00613D052D17
:1006C800EDD8573BF4E70000F0B5094E0700356850
:1006D80001200F2D0BDCFF2909D8064C28010755EE
:1006E8002018416082600373002001353560F0BD39
:1006F8003C0000204000002010B50023FFF7E4FF75
:1007080010BD000010B5084A00217620FFF7F4FF5D
:10071800064A00217720FFF7EFFF054A00217920DC
:10072800FFF7EAFF10BDC046590600089107000808
:1007380075070008F8B50D0014000F2700F088F9B8
:100748006519AC4203D10A2000F082F9F8BD23787C
:10075800054E1B09F05C00F07BF9237801343B401F
:10076800F05C00F075F9ECE7CC14000807B56B46AF
:10077800DA1D044B72201B6801211370FFF7DAFFA2
:1007880000200EBD3C0000200322114BF0B594461A
:100798001C6800230F4D8DB0E6B2B34209DB6146F9
:1007A80061436A46C9B27220FFF7C4FF00200DB04A
:1007B800F0BD624669465A431801475D28188F54B0
:1007C8004168007B6A44013351709070DBB2E4E702
:1007D8003C00002040000020F0B5304CA54400F05B
:1007E8001FF92F4B2F491A6800239A4204DC07D1BE
:1007F800C3239B009D44F0BD1C010C5D844241D184
:100808000127284D1C012E19337B3B421AD00023A7
:100818006A46137200F004F984226B4652009B1852
:10082800187000F0FDF80A226B46FF329B1818700A
:1008380002AA42A93800FFF70DFF0028D8D16B465D
:100848001B7A736000262B195B685B00B3421BD8C8
:1008580000F0E6F80A2801D00D28C9D12C196568DE
:1008680002AA42A92800FFF7F5FE0028C0D1E9B284
:10087800A36802A8984701AA107001217A20FFF7FF
:1008880059FFB5E70133B0E700F0CAF80A28AFD03E
:100898000D28ADD042ABF0540136D4E7F4FCFFFF8D
:1008A8003C00002040000020F0B5902700240125DE
:1008B8000326042397B0FF0505A93800059306957C
:1008C8000794089600F046FB102305A93800059305
:1008D80006950794089600F03DFB05230AA80B939C
:1008E8000A960D94139400F0C9F80723210001A873
:1008F800019302950394049400F0A2FA17B0F0BD96
:10090800802170B51B4C8902626988B00A43626114
:10091800636990200B400193019BC023DB00039384
:1009280001250223032603A9C0050493059507950D
:10093800069600F00FFB8021A269C9010A43A26153
:10094800A3690D480B400293029B236BB3431D43DD
:100958000A4B2563036096231B02436000238360D0
:10096800C360036183610C33436100F06BFC08B022
:1009780070BDC0460010024044010020003801400C
:1009880080201E4AF0B551698002014351615369C4
:1009980087B0034090240093012500260327009B7D
:1009A8008023E40501A9200001930295039604978A
:1009B80000F0D0FA102301A92000019302950396B4
:1009C800049700F0C7FA042301A9200001930295B7
:1009D8000396049700F0BEFA32002000802100F050
:1009E80069FB2A002000102100F064FB2A00042182
:1009F800200000F05FFB07B0F0BDC04600100240C9
:100A0800902010B501228021C00500F053FB10BDD5
:100A1800902010B500228021C00500F04BFB10BDCE
:100A280037B508256B46DC1D012232232100064814
:100A380000F03AFC002801D120783EBD034A136A31
:100A48002B431362EEE7C046440100200038014002
:100A580007B56B46D91D0870024B0122024800F009
:100A680099FC07BD8813000044010020024B186858
:100A7800421C1A607047C04640010020F0B5036868
:100A880085B00500DB072FD42B689B0700D581E0D4
:100A98002B681B0700D5BCE02B685B0700D5DFE09F
:100AA8002B68DB061AD56A69B54C0423012A00D0E5
:100AB8004BE1616B02260B436363636B1A4362630A
:100AC800FFF7D4FF0700636B334200D136E1F8210A
:100AD800626BAB698A43DB0013436363296A0029AD
:100AE80000D059E1002013E00C21A54C62680A40AF
:100AF800042A06D063680B40082B0BD16368DB031C
:100B080008D523689B03BFD56B68002BBCD1012097
:100B180005B0F0BD6B68012B13D1802322685B02FE
:100B280013432360FFF7A2FF80260700B60223685D
:100B38003342A9D1FFF79AFFC01B6428F7D90320D5
:100B4800E6E7002B16D123688E4A802613402360DF
:100B580023688D4AB60213402360FFF787FF07001A
:100B68002368334200D18FE7FFF780FFC01B64285A
:100B7800F6D9E4E7052B05D180232268DB0213436D
:100B88002360CAE723687F4A1340236023687E4AAC
:100B98001340C6E70C227A4C6368134206D0636898
:100BA8001340082B10D16368DB030DD423689B071F
:100BB80002D5EB68012BAAD1F82122682B698A4358
:100BC800DB001343236063E7EA680123002A0FD0A0
:100BD8002268022613432360FFF748FF07002368B3
:100BE8003342E9D1FFF742FFC01B0228F7D9A6E735
:100BF800226802269A432260FFF738FF070023681D
:100C0800334200D144E7FFF731FFC01B0228F6D971
:100C180095E7EA6901235A4C002A10D0626A022635
:100C280013436362FFF722FF0700636A334200D071
:100C380032E7FFF71BFFC01B0228F6D97FE7626A7D
:100C480002269A436262FFF711FF0700636A334284
:100C580000D121E7FFF70AFFC01B0228F6D96EE78B
:100C680080220021464C5205E3690091134208D1C5
:100C7800E3691343E361E36913400393039B01238F
:100C880000938027414E7F0033683B4206D0AB6813
:100C9800012B13D1226A1343236230E033683B43AC
:100CA8003360FFF7E3FE019033683B42EFD1FFF773
:100CB800DDFE019BC01A6428F6D940E70122002B0B
:100CC80014D1236A022793432362236A033293438E
:100CD8002362FFF7CBFE0600236A3B4225D0FFF7CD
:100CE800C5FE2B4B801B9842F6D928E7052B0BD164
:100CF800216A013B0B432362236A1A432262FFF7EE
:100D0800B5FE022706000DE0236A934304222362FE
:100D1800236A9343C0E7FFF7A9FE1D4B801B984247
:100D280000D90CE7236A3B42F5D0009B012B00D089
:100D3800B6E6E369174A1340E361B1E6FFF796FEAA
:100D4800C01B022800D8BEE6F9E6053203D1626B63
:100D58009A436263BBE6626B022613430122636314
:100D6800636B93436363FFF781FE0700636B334252
:100D780000D1B3E6FFF77AFEC01B0228F6D9DEE6FB
:100D880000100240FFFFFEFFFFFFFBFF0070004066
:100D980088130000FFFFFFEF0C22264C0120636838
:100DA8001340082B00D1B3E62368234A134023607D
:100DB80002292FD1FFF75AFE80260700B6042368C0
:100DC800334221D10F22E36A9343EA6A1343E36271
:100DD800696AAB6A62680B43184980250A40134365
:100DE8006360802322685B0413432360FFF73EFEA1
:100DF8000600AD0423682B4200D073E6FFF736FEE9
:100E0800801B0228F6D99AE6FFF730FEC01B02289D
:100E1800D5D994E6FFF72AFE80250600AD0423689D
:100E28002B4200D15EE6FFF721FE801B0228F6D98F
:100E380085E6C04600100240FFFFFFFEFFFFC2FF2D
:100E4800F7B501223E4C060023680F0013408B4281
:100E580012D33268930719D4D3071FD40123226809
:100E68001A40BA425DD833685B0761D4E122354B3A
:100E7800D2031A60002008E0236893430B432360E1
:100E8800236813408B42E4D00120FEBDF0202E4998
:100E98004B688343B06803434B60DDE72A4D7268B3
:100EA8002B68012A1AD19B03EED503216B688B436B
:100EB80013436B60FFF7DAFD73680190012B15D1BE
:100EC8000C226B681340042BC8D0FFF7CFFD019BA1
:100ED800C01A1E4B9842F3D90320D6E7022A02D142
:100EE8009B01E2D4D0E79B07DFD4CDE7022B12D0D9
:100EF8000C226B681342B1D0FFF7B8FD019BC01AF2
:100F0800124B9842F4D9E7E7FFF7B0FD019BC01AEE
:100F18000E4B9842E0D80C226B681340082BF3D193
:100F28009CE722689A43226022681A429BD0ABE76A
:100F3800054A074953680B40F1680B43536095E72E
:100F4800002002401C00002000100240881300000E
:100F5800FFF8FFFFF0B50B6887B0039300230191FA
:100F6800039ADA4001D107B0F0BD01229A400292FB
:100F78000299039A0A40009200D18CE0019A10214C
:100F8800526816008E43022E0ED107251D40AD0073
:100F98000139A940DC08A4000419276A8F43019984
:100FA8000969A9400F43276203245F00BC40E4435A
:100FB8000568013E2540AC4603251540BD40614605
:100FC8000D430560012E0FD801998668CD6826402B
:100FD800BD40354385604668029915098E43012155
:100FE8000D409D4035434560C56801992C408D688A
:100FF8008021BD4049052C43C4600A424BD00121E1
:10100800264C0326A5691E400D43A561A4699D08C9
:101018000C400594059C0F242149AD00B6006D18BD
:10102800B4409021AF68C905A743002488420CD07A
:101038001C490134884208D01B490134884204D035
:101048001A490134884200D00234B44000993C4324
:101058000E00AC60164CCD4327683E43D10301D443
:101068003E002E4026606768009E3E43910301D4EF
:101078003E002E406660A768009E3E43D10201D420
:101088003E002E40A660E668009F3743920201D4D6
:101098002E403700E760013362E7C0460010024087
:1010A800000001400004004800080048000C004807
:1010B80000040140002A01D0816170478162FCE789
:1010C800F8B504000E0015001F002268D3693340EC
:1010D8009B1B59424B41AB4201D0002018E0069BB4
:1010E8000133F3D0069B002B13D123680C491A68EF
:1010F80003200A401A609A68A331FF318A439A6034
:10110800220020236932137053700023683423703F
:10111800F8BDFFF7ABFC069BC01B9842D5D9E4E7A6
:101128005FFEFFFF030070B59A681C6905682243DB
:101138005C69C169224328683B4C0A43204002434A
:101148002A606A6839481C6A0240D86802436A60A3
:101158009A69A8682243364C204002430320AA60BB
:10116800344A126B02403448845C80221202914255
:1011780030D1082C2BD82000FFF74EF80529162966
:101188001F29292924005968E12348081B04C0188D
:10119800FFF74CF880B202000F2300079A43400F74
:1011A8001043E860200070BD5968244B4808C018F7
:1011B800FFF73CF8002480B2EDE75968E1234808BE
:1011C8001B04F4E75968802348085B02EFE7012411
:1011D8000020E0E7082C24D82000FFF71DF805229E
:1011E8000E22182222221D005968E1234808DB0339
:1011F800C018FFF71BF880B2D3E75968104B4808AE
:10120800C018FFF713F880B2E8600024CAE75968ED
:10121800E1234808DB03F3E75968802348081B02E9
:10122800EEE70124BEE7C046F369FFFFFFCFFFFFEB
:10123800FFF4FFFF00100240DC1400080048E8013A
:101248000024F40070B5041E01D1012070BD050012
:1012580069352B78DBB2002B02D10200683213709B
:101268002423012622682B7013682000B3431360DF
:10127800FFF758FFB042E8D023680A495A680020AF
:101288000A4008215A609A688A439A601A68164385
:1012980022001E602023E0666A3268342B701370C7
:1012A8002070D3E7FFF7FFFFF0B51F0003006A3394
:1012B80016001A78040085B00D000220202A39D1C2
:1012C8000138002936D0002E34D08022A16852017E
:1012D800914204D12269002A01D105422AD1220073
:1012E800683211780220012924D0012111700022CE
:1012F800E26622321A70FFF7B9FB23008021A26848
:1013080058331E805E800390490104338A4215D108
:101318002269002A10D11E4A1A801E8822005A32D9
:10132800108880B2002810D1230020226A33683444
:101338001A70207005B0F0BDFF22EDE7002AECD14D
:101348002269002AF8D07F22E6E713882021013B92
:101358009BB2138020000097039B0022FFF7B0FE8A
:10136800002813D1A26823681100802252019142FB
:1013780007D12269002A04D19B8C33402B80023587
:10138800CCE79B8C33402B700135C7E70320D1E7AE
:10139800FF010000F0B5070085B0039369373B787B
:1013A80004000D0016000220202B46D10138002928
:1013B80043D0002A41D08023A2685B019A4204D11D
:1013C8002369002B01D1014237D1230068331A78F1
:1013D8000220012A31D001221A700023E36621334A
:1013E8003B70FFF743FB230050331E805E8080264E
:1013F80002907601210052310A8892B2002A0DD15A
:10140800039B402100932000029BFFF759FE002810
:1014180012D1202368343B7020700EE00B88002224
:10142800013B9BB20B80039B802100932000029B11
:10143800FFF746FE002802D0032005B0F0BDA368E0
:101448002268B34208D12369002B05D12B880235C5
:10145800DB05DB0D1385CDE72B7801351385C9E74F
:10146800002103E00B4B5B58435004310A480B4BF7
:1014780042189A42F6D30A4A02E000231360043263
:10148800084B9A42F9D300E000BFFFF745F8FFF791
:10149800C5F8FEE7E814000800000020200000203E
:1014A80020000020B4010020FEE70000F8B5C04687
:1014B800F8BC08BC9E467047F8B5C046F8BC08BCE6
:0414C8009E46704785
:1014CC00303132333435363738394142434445466E
:0414DC0000040802FE
:0414E000FD01000802
:0414E400D10100082A
:1014E800524F4B43535F42595F5349444543484128
:1014F8004E4E454C5F5249564552000000127A0044
:040000050800146972
:00000001FF
